:020000040800F2
:10800000005000207D8B0008198C0008258C00088A
:10801000318C00083D8C0008498C000800000000ED
:10802000000000000000000000000000558C000867
:10803000618C0008000000006D8C0008798C00083D
:10804000858C0008918C00089D8C0008A98C000884
:10805000B58C0008C18C0008CD8C0008D98C0008B4
:10806000E58C0008F18C0008FD8C0008098D0008E3
:10807000158D0008218D00082D8D0008398D000810
:10808000458D0008518D00085D8D0008698D000840
:10809000758D0008818D00088D8D0008998D000870
:1080A000A58D0008B18D0008BD8D0008C98D0008A0
:1080B000D58D0008E18D0008ED8D0008F98D0008D0
:1080C000058E0008118E00081D8E0008298E0008FC
:1080D000358E0008418E00084D8E0008598E00082C
:1080E000658E0008718E00087D8E0008000000007B
:1080F0000000000000000000000000000000000080
:0C8100000000000000000000898E000854
:10810C0080B584B000AF78600023FB737B68002BD4
:10811C0067D07B6802225A717B6802225A737B6893
:10812C0002225A757B6800229A717B6800229A732E
:10813C007B6800229A757B68184600F075FC7B689A
:10814C000833184600F070FC7B681033184600F0BA
:10815C006BFC0023FB7318E0FB7B7A680333DB00BA
:10816C00134402225A71FB7B7A680333DB001344FD
:10817C0000229A71FB7B0333DB007A6813441846A8
:10818C0000F052FCFB7B0133FB73FB7B032BE3D92D
:10819C000023BB6003E000BFBB680133BB60BB685E
:1081AC0042F6F7229342F6D93321786800F01DF895
:1081BC003221786800F019F82821786800F015F859
:1081CC000C21786800F011F80621786800F00DF8A1
:1081DC008021786800F009F80121786800F005F832
:1081EC0000E000BF1037BD4680BD80B582B000AF47
:1081FC0078600B46FB707B68002B1DD07B680021E0
:10820C00184600F075FC7B6808330021184600F016
:10821C006FFCFB781B09DBB21946786800F032F969
:10822C00786800F06BF9FB781946786800F02AF949
:10823C00786800F063F900E000BF0837BD4680BDE8
:10824C0080B586B000AFF860B96011461A460B468F
:10825C00FB711346BB710023FB75FB68002B22D00E
:10826C0097F820300833DBB2DB00DBB21946F86834
:10827C00FFF7BBFF0023FB750AE0FB7DBA681344D4
:10828C001B781946F86800F012F8FB7D0133FB757A
:10829C00FB7D072BF1D997F82030BA79F979F8687A
:1082AC0000F030F800E000BF1837BD4680BD80B547
:1082BC0082B000AF78600B46FB707B68002B1DD042
:1082CC007B680121184600F013FC7B680833002101
:1082DC00184600F00DFCFB781B09DBB219467868D8
:1082EC0000F0D0F8786800F009F9FB781946786846
:1082FC0000F0C8F8786800F001F900E000BF08371A
:10830C00BD4680BD80B582B000AF7860084611468E
:10831C001A460346FB700B46BB7013467B707B689A
:10832C00002B0BD0BA78FB781946786800F00EF960
:10833C007B7819467868FFF7BAFF00E000BF083772
:10834C00BD4680BD80B582B000AF786039607B6877
:10835C00002B0DD007E03B685A1C3A601B7819467D
:10836C007868FFF7A4FF3B681B78002BF3D100E083
:10837C0000BF0837BD4680BD80B584B000AFF86043
:10838C007B600B46FB721346BB72FB68002B13D051
:10839C00BA7AFB7A1946F86800F0D8F807E07B68DF
:1083AC005A1C7A601B781946F868FFF780FF7B68C7
:1083BC001B78002BF3D100E000BF1037BD4680BD09
:1083CC0080B582B000AF786001217868FFF70DFFAF
:1083DC0000BF0837BD4680BD80B586B000AF786061
:1083EC000B46FB701346BB70BB78013BBB70002384
:1083FC00FB757B68002B22D1BA78F97830231F48A3
:10840C00FFF780FF36E079681D4BA3FB0123DA08E8
:10841C0013469B0013445B00CA1AD2B2FB7D303268
:10842C00D2B207F118010B4403F80C2C7B68144AE8
:10843C00A2FB0323DB087B60FB7D0133FB757B68B0
:10844C00002BE0D1FB7DBB7511E0BB780133BB7019
:10845C00BB7D013B07F11802134413F80C3CBA78AE
:10846C00F9780648FFF74EFFBB7D013BBB75BB7D22
:10847C00002BEAD100BF1837BD4680BD000000209C
:10848C00CDCCCCCC80B582B000AF78600B46FB7005
:10849C007B6803F11802FB7803F00103DBB2194689
:1084AC00104600F025FB7B6803F12002FB785B088B
:1084BC00DBB203F00103DBB21946104600F018FBE7
:1084CC007B6803F12802FB789B08DBB203F0010305
:1084DC00DBB21946104600F00BFB7B6803F130024F
:1084EC00FB78DB08DBB203F00103DBB21946104664
:1084FC0000F0FEFA00BF0837BD4680BD80B584B0E1
:10850C0000AF78607B6810330121184600F0F0FA58
:10851C000023FB7302E0FB7B0133FB73FB7B092B1A
:10852C00F9D97B6810330021184600F0E1FA0023DA
:10853C00BB8102E0BB890133BB81BB89B3F5FA6F08
:10854C00F8D300BF00BF1037BD4680BD80B582B0E8
:10855C0000AF78600B46FB701346BB70BB78013BD9
:10856C00BB70FB78013B032B2AD801A252F823F0F5
:10857C008D8500089D850008AD850008BD85000827
:10858C00BB78803BDBB219467868FFF72EFE17E00C
:10859C00BB78403BDBB219467868FFF726FE0FE04C
:1085AC00BB786C3BDBB219467868FFF71EFE07E020
:1085BC00BB782C3BDBB219467868FFF716FE00BF80
:1085CC0000BF0837BD4680BD80B582B000AF786073
:1085DC007B68002B16D07B681B78184600F090F84F
:1085EC007B681B78022B09D17B685B78184600F0FE
:1085FC001BF97B689B78184600F0A2F9786800F0AC
:10860C00B3F900E000BF0837BD4680BD80B483B02D
:10861C0000AF03460A46FB711346BB71FB79022B74
:10862C001CD0022B25DC002B02D0012B0BD020E020
:10863C00134B5B69BA79012101FA02F21146104A17
:10864C000B43536116E00E4BDB69BA79012101FA39
:10865C0002F211460A4A0B43D3610BE0084B9B69AB
:10866C00BA79012101FA02F21146054A0B439361D2
:10867C0000E000BF00BF0C37BD4680BC704700BF98
:10868C000010024080B483B000AF03460A46FB7171
:10869C001346BB71FB79022B1ED0022B28DC002B5E
:1086AC0002D0012B0CD023E0144B5B69BA79012169
:1086BC0001FA02F2D2431146104A0B40536118E002
:1086CC000E4BDB69BA79012101FA02F2D243114651
:1086DC000A4A0B40D3610CE0084B9B69BA79012123
:1086EC0001FA02F2D2431146044A0B40936100E0B6
:1086FC0000BF00BF0C37BD4680BC70470010024065
:10870C0080B483B000AF0346FB71464B5B68454AAF
:10871C0023F001035360434B5B68424A23F002038E
:10872C005360FB79022B42D0022B5BDC002B02D076
:10873C00012B1BD056E03B4B1B683A4A43F001031C
:10874C00136000BF374B1B685B0803F00103002B61
:10875C00F8D0344B5B68334A23F001035360314B40
:10876C005B68304A23F00203536056E02D4B1B68C4
:10877C002C4A43F4803313602A4B1B68294A23F498
:10878C008023136000BF274B1B685B0C03F00103B5
:10879C00002BF8D0234B5B68224A43F00103536053
:1087AC00204B5B681F4A23F00203536035E01D4BDE
:1087BC001B681C4A43F08073136000BF194B1B6885
:1087CC005B0E03F00103002BF8D0164B5B68154AC7
:1087DC0023F001035360134B5B68124A43F002030E
:1087EC0053601AE00F4B1B680E4A43F001031360F1
:1087FC0000BF0C4B1B685B0803F00103002BF8D087
:10880C00084B5B68074A23F001035360054B5B6818
:10881C00044A23F00203536000BF00BF0C37BD466F
:10882C0080BC70470010024080B483B000AF034698
:10883C00FB71424B5B68414A23F4003353603F4B5E
:10884C005B683E4A23F480335360FB79022B4CD097
:10885C00022B5FDC002B02D0012B23D05AE0374BCC
:10886C001B68364A43F48033136000BF334B1B68DC
:10887C005B0C03F00103002BF8D0304B5B682F4AE4
:10888C0023F4003353602D4B5B682C4A43F4803344
:10889C00536000BF294B1B685B0C03F00103002BDA
:1088AC00F8D046E0254B1B68244A43F48033136010
:1088BC0000BF224B1B685B0C03F00103002BF8D0AC
:1088CC001E4B5B681D4A43F4003353601B4B5B68C3
:1088DC001A4A43F48033536000BF184B1B685B0C7F
:1088EC0003F00103002BF8D023E0144B1B68134A50
:1088FC0043F00103136000BF104B1B685B0803F0CF
:10890C000103002BF8D00D4B5B680C4A23F4803329
:10891C0053600EE0094B1B68084A43F001031360D7
:10892C0000BF064B1B685B0803F00103002BF8D05B
:10893C0000BF00BF0C37BD4680BC70470010024022
:10894C0080B483B000AF0346FB71064B5B68FA79C9
:10895C0092041146034A0B43536000BF0C37BD46CB
:10896C0080BC70470010024080B483B000AF7860C8
:10897C007B68002B1BD0104B5B687A68D278120195
:10898C0011460D4A0B4353600B4B5B687A681279A6
:10899C0012021146084A0B435360074B5B687A6816
:1089AC005279D2021146044A0B43536000E000BFD7
:1089BC000C37BD4680BC70470010024080B582B0B9
:1089CC0000AF1748FFF700FE02210220FFF71EFE42
:1089DC0003210220FFF71AFE124800F025F80021AF
:1089EC00104800F085F80023FB8003E000BFFB88F3
:1089FC000133FB80FB8849F63F429342F6D90121B3
:108A0C00084800F075F80023BB8003E000BFBB886A
:108A1C000133BB80BB8849F63F429342F6D9DEE76F
:108A2C00380000204000002080B584B000AF786092
:108A3C007B681B79FB737B685B79BB73FB7B0F2BB0
:108A4C000DD87B681B68BA7BF97B184600F00BF8D5
:108A5C007B689B791946786800F04AF800E000BF03
:108A6C001037BD4680BD80B483B000AF78600B4634
:108A7C00FB701346BB70FB780F2B34D8FB78072B9D
:108A8C0015D87B681B68FA7892000F2101FA02F264
:108A9C00D2431A407B681A607B681B68B978FA78F5
:108AAC00920001FA02F21A437B681A601CE0FB7810
:108ABC000F2B19D8FB78083BFB707B685B68FA7846
:108ACC0092000F2101FA02F2D2431A407B685A60DD
:108ADC007B685B68B978FA78920001FA02F21A4363
:108AEC007B685A6000E000BF0C37BD4680BC704705
:108AFC0080B483B000AF78600B46FB707B681B7949
:108B0C000F2B16D8FB78012B09D17B681B791A46E1
:108B1C00012303FA02F27B681B681A610AE07B6886
:108B2C001B791A46012303FA02F27B681B685A610F
:108B3C0000E000BF0C37BD4680BC704780B483B0EA
:108B4C0000AF78607B681B790F2B01D9002309E0FB
:108B5C007B681B689B687A681279D340DBB203F0A0
:108B6C000103DBB218460C37BD4680BC70470000D1
:108B7C0080B586B000AFC74885461D4B1B681D4AA3
:108B8C0012681A6000237B601B4B7B611B4B3B61A3
:108B9C001B4A1A4BD31A9B107B600023FB600AE024
:108BAC007A69131D7B613B69191D396112681A6062
:108BBC00FB680133FB60FA687B689A42F0D3114A78
:108BCC00114BD31A9B107B600F4B3B610023BB6096
:108BDC0007E03B691A1D3A6100221A60BB68013339
:108BEC00BB60BA687B689A42F3D3FFF7E7FEFEE7F7
:108BFC004800002000800008A88E0008000000201B
:108C0C004C0000204C0000204C00002080B400AF31
:108C1C0000BFBD4680BC704780B400AF00BFBD46EE
:108C2C0080BC704780B400AF00BFBD4680BC7047AD
:108C3C0080B400AF00BFBD4680BC704780B400AFAD
:108C4C0000BFBD4680BC704780B400AF00BFBD46BE
:108C5C0080BC704780B400AF00BFBD4680BC70477D
:108C6C0080B400AF00BFBD4680BC704780B400AF7D
:108C7C0000BFBD4680BC704780B400AF00BFBD468E
:108C8C0080BC704780B400AF00BFBD4680BC70474D
:108C9C0080B400AF00BFBD4680BC704780B400AF4D
:108CAC0000BFBD4680BC704780B400AF00BFBD465E
:108CBC0080BC704780B400AF00BFBD4680BC70471D
:108CCC0080B400AF00BFBD4680BC704780B400AF1D
:108CDC0000BFBD4680BC704780B400AF00BFBD462E
:108CEC0080BC704780B400AF00BFBD4680BC7047ED
:108CFC0080B400AF00BFBD4680BC704780B400AFED
:108D0C0000BFBD4680BC704780B400AF00BFBD46FD
:108D1C0080BC704780B400AF00BFBD4680BC7047BC
:108D2C0080B400AF00BFBD4680BC704780B400AFBC
:108D3C0000BFBD4680BC704780B400AF00BFBD46CD
:108D4C0080BC704780B400AF00BFBD4680BC70478C
:108D5C0080B400AF00BFBD4680BC704780B400AF8C
:108D6C0000BFBD4680BC704780B400AF00BFBD469D
:108D7C0080BC704780B400AF00BFBD4680BC70475C
:108D8C0080B400AF00BFBD4680BC704780B400AF5C
:108D9C0000BFBD4680BC704780B400AF00BFBD466D
:108DAC0080BC704780B400AF00BFBD4680BC70472C
:108DBC0080B400AF00BFBD4680BC704780B400AF2C
:108DCC0000BFBD4680BC704780B400AF00BFBD463D
:108DDC0080BC704780B400AF00BFBD4680BC7047FC
:108DEC0080B400AF00BFBD4680BC704780B400AFFC
:108DFC0000BFBD4680BC704780B400AF00BFBD460D
:108E0C0080BC704780B400AF00BFBD4680BC7047CB
:108E1C0080B400AF00BFBD4680BC704780B400AFCB
:108E2C0000BFBD4680BC704780B400AF00BFBD46DC
:108E3C0080BC704780B400AF00BFBD4680BC70479B
:108E4C0080B400AF00BFBD4680BC704780B400AF9B
:108E5C0000BFBD4680BC704780B400AF00BFBD46AC
:108E6C0080BC704780B400AF00BFBD4680BC70476B
:108E7C0080B400AF00BFBD4680BC704780B400AF6B
:108E8C0000BFBD4680BC704780B400AF00BFBD467C
:088E9C0080BC7047005000206B
:048EA400005000205A
:108EA800000801400400000000080140050000001F
:108EB8000008014006000000000801400000000012
:108EC8000008014001000000000801400200000005
:108ED800000801400300000001000000000000003D
:0C8EE800000801400002000010E000E063
:040000050800810C62
:00000001FF
